:10000000BDEF00F0FF00FF00FACF01F0FBCF02F0E0
:10001000E9CF03F0EACF04F0E1CF05F0E2CF06F03C
:10002000D9CF07F0DACF08F0F3CF09F0F4CF0AF018
:10003000F6CF0BF0F7CF0CF0F8CF0DF0F5CF0EF0B8
:100040009EB09DA07DD03C0ECF6ED60ECE6E4B2ABC
:100050000F0E4B6408D0000E0001836F010E0001EB
:10006000826F000E4B6E4A2A010E4A6425D00001B1
:100070008C29D8A40DD000017E510001805D0001C3
:100080007F5100018159D8B003D00001804B812BF2
:1000900000018C29D8A40ED00001805100017E5DA2
:1000A0000001815100017F59D8B004D000018007C0
:1000B000D8A08107000E4A6E484A492A140E485CAF
:1000C000000E4958D8A03BD0000E496E000E486E75
:1000D00000018B2900018B6F0001844B852B3C0EA6
:1000E0000001845D000E00018559D8A028D0000EC3
:1000F0000001856F000E0001846F00017C4B7D2B99
:100100003C0E00017C5D000E00017D59D8A017D087
:10011000000E00017D6F000E00017C6F0001884B16
:10012000892B180E0001885D000E00018959D8A0A6
:1001300006D0000E0001896F000E0001886F9E90AE
:100140000EC0F5FF0DC0F8FF0CC0F7FF0BC0F6FFA7
:100150000AC0F4FF09C0F3FF08C0DAFF07C0D9FFE7
:1001600006C0E2FF05C0E1FF04C0EAFF03C0E9FFEB
:1001700002C0FBFF01C0FAFF11007FEF0DF0FF008E
:10060000006220723A2020252030303A30303A30D3
:10061000300020723A2020202520523A2020252028
:1006200020000000000E0001606F84EC0CF022EC52
:100630000BF0CBEC07F0000E00017B6F000E000109
:100640007A6F000E0001746F000E0001736F010ECF
:100650000001616F000E00016E6F000E0001706FEF
:10066000000E00016F6F000E00016B6F000E0001A5
:100670006A6F000E0001766F000E0001776F000EAA
:100680000001786F000E0001796F000E0001666FA7
:10069000000E0001676F000E0001686F000E000180
:1006A000696F000E0001756F76C030F077C031F0D1
:1006B00078C032F079C033F027EC0AF030C044F053
:1006C00031C045F032C046F033C047F044C086F038
:1006D00045C087F0FF0E0001865D030E00018759BB
:1006E000D8A005D0030E0001876F00018669000EB7
:1006F0000F6EC00E106E7F0E116EC40E126E76C09D
:1007000013F077C014F078C015F079C016F08EECB5
:100710000BF0D8A00CD0000E0001766FC00E0001C7
:10072000776F7F0E0001786FC40E0001796F76C07D
:100730000FF077C010F078C011F079C012F0000E01
:10074000136EC00E146E7F0E156E440E166E8EEC78
:100750000BF0D8A00CD0000E0001766FC00E000187
:10076000776F7F0E0001786F440E0001796F0001F2
:1007700079AF18D076C030F077C031F078C032F061
:1007800079C033F027EC0AF030C044F031C045F0B6
:1007900032C046F033C047F0445000018627455030
:1007A000000187230A0E19EC0DF00FC07EF010C077
:1007B0007FF0000186C044F0000187C045F0D8906A
:1007C00045324432D89045324432445000016C6F77
:1007D00000018651030B00016D6F6CC055FF6DC0A9
:1007E00044F0443AF00E44160F015451CF0B44101C
:1007F0000F01546F0C0E19EC0DF00FC071F010C00A
:1008000072F000017A4B7B2B000171C044F00001B3
:1008100072C045F0D89045324432D89045324432C7
:10082000445000016E6F6EC0ADFF00018205831160
:10083000D8A494D076C066F077C067F078C068F02E
:1008400079C069F06FC06AF070C06BF0000171C0D0
:1008500044F0000172C045F0441E451E444A452A3A
:1008600000018051442400016F6F00018151452037
:100870000001706F250E226E060E236E110E246E7F
:10088000400E256E6AC019F06BC01AF0F3EC0CF044
:1008900019C01EF01AC01FF01BC020F01CC021F0B0
:1008A0006BEC08F01EC031F01FC032F020C033F0F6
:1008B00021C034F03CEC0DF031C039F032C03AF0D8
:1008C00033C03BF034C03CF06F0E226E120E236E2C
:1008D000130E246E400E256E6FC019F070C01AF012
:1008E000F3EC0CF019C01EF01AC01FF01BC020F072
:1008F0001CC021F06BEC08F01EC035F01FC036F0B4
:1009000020C037F021C038F0CBEC06F035C062F0E3
:1009100036C063F037C064F038C065F062C035F0AF
:1009200063C036F064C037F065C038F066C039F097
:1009300067C03AF068C03BF069C03CF0CBEC06F011
:1009400035C076F036C077F037C078F038C079F02F
:10095000000E0001836F000E0001826F82A216D08C
:10096000320E00017325446E000E00017421456EA5
:10097000445000017A5D455000017B59D8A006D053
:1009800000018C1F7AC073F07BC074F000018C29C9
:10099000D8A406D04E0E9BEC0DF0030EBFEC0CF06D
:1009A00000018C6706D04E0E9BEC0DF0200EBFECC4
:1009B0000CF0140E216EAE0E226E230E236E410E2D
:1009C000246E7EC019F07FC01AF06AEC0DF019C0D9
:1009D0001DF01AC01EF01BC01FF01CC020F098ECC8
:1009E00009F01DC030F01EC031F01FC032F020C031
:1009F00033F027EC0AF030C044F031C045F032C08B
:100A000046F033C047F0445000018D6F0A0E0001DC
:100A10008D5DD8B012D0040E9BEC0DF0060E116E59
:100A2000200E106E55EC0DF0050E9BEC0DF0000144
:100A30008D51300FBFEC0CF030D0640E00018D5D95
:100A4000D8B02BD0040E9BEC0DF0060E116E200ECC
:100A5000106E55EC0DF0040E9BEC0DF000018DC0F6
:100A60000FF0106A000E126E0A0E116EEAEC0BF017
:100A70000F50300FBFEC0CF0050E9BEC0DF0000199
:100A80008DC00FF0106A000E126E0A0E116E3CEC53
:100A90000CF00F50300FBFEC0CF0140E216EAE0EA8
:100AA000226E230E236E410E246E71C019F072C0A7
:100AB0001AF06AEC0DF019C01DF01AC01EF01BC030
:100AC0001FF01CC020F098EC09F01DC030F01EC0D3
:100AD00031F01FC032F020C033F027EC0AF030C0F4
:100AE00044F031C045F032C046F033C047F04450C6
:100AF00000018A6F0A0E00018A5DD8B012D0440E40
:100B00009BEC0DF0060E116E200E106E55EC0DF0E4
:100B1000450E9BEC0DF000018A51300FBFEC0CF03C
:100B200030D0640E00018A5DD8B02BD0440E9BEC0F
:100B30000DF0060E116E200E106E55EC0DF0440EE9
:100B40009BEC0DF000018AC00FF0106A000E126ECF
:100B50000A0E116EEAEC0BF00F50300FBFEC0CF0E8
:100B6000450E9BEC0DF000018AC00FF0106A000EDC
:100B7000126E0A0E116E3CEC0CF00F50300FBFECF1
:100B80000CF079BC06D04F0E9BEC0DF0000EBFECC4
:100B90000CF079AC19D000018BA10DD04F0E9BEC5D
:100BA0000DF0010EBFEC0CF00A0E00018B6503D0B6
:100BB000010E00018B6F00018BB106D04F0E9BEC34
:100BC0000DF0020EBFEC0CF000018C6704D07EC06B
:100BD00080F07FC081F0140E216EAE0E226E230EC7
:100BE000236E410E246E80C019F081C01AF06AECA9
:100BF0000DF019C01DF01AC01EF01BC01FF01CC064
:100C000020F098EC09F01DC030F01EC031F01FC07C
:100C100032F020C033F027EC0AF030C044F031C08D
:100C200045F032C046F033C047F044500001756FC4
:100C30000A0E0001755DD8B012D04A0E9BEC0DF083
:100C4000060E116E200E106E55EC0DF04B0E9BEC47
:100C50000DF000017551300FBFEC0CF030D0640E78
:100C60000001755DD8B02BD04A0E9BEC0DF0060E3E
:100C7000116E200E106E55EC0DF04A0E9BEC0DF02F
:100C8000000175C00FF0106A000E126E0A0E116E90
:100C9000EAEC0BF00F50300FBFEC0CF04B0E9BEC5E
:100CA0000DF0000175C00FF0106A000E126E0A0EF2
:100CB000116E3CEC0CF00F50300FBFEC0CF082AA20
:100CC00017D0320E00017325446E000E000174210E
:100CD000456E445000017A5D455000017B59D8A013
:100CE00007D00001884B892B7AC073F07BC074F069
:100CF00081AC17D0320E00017325446E000E000146
:100D00007421456E445000017A5D455000017B59C5
:100D1000D8A007D000017C4B7D2B7AC073F07BC03C
:100D200074F081AE1AD0320E00017325446E000EAD
:100D300000017421456E445000017A5D4550000168
:100D40007B59D8A00AD0000E0001856F000E00016B
:100D5000846F7AC073F07BC074F081BC81AE12D016
:100D6000000E0001856F000E0001846F000E00016F
:100D70007D6F000E00017C6F000E0001896F000E78
:100D80000001886F7CC017F088C018F00001845102
:100D900009EC09F089D435C03DF036C03EF037C0CB
:100DA0003FF038C040F0180E05D0D89040323F32A6
:100DB0003E323D32E82EF9D73D50436E39C03DF00A
:100DC0003AC03EF03BC03FF03CC040F0180E05D0AA
:100DD000D89040323F323E323D32E82EF9D73D5076
:100DE000426E4350D8B40CD04250435CD8B011D0BE
:100DF0004350000842243D6E210E3D5CD8A009D02E
:100E000039C035F03AC036F03BC037F03CC038F05E
:100E100012004250D8B40CD04350425CD8B011D02C
:100E20004250000843243D6E210E3D5CD8A009D0FD
:100E300035C035F036C036F037C037F038C038F03E
:100E40001200060E416E38BE418E3CBE418C378E7C
:100E5000FF0E3516FF0E3616FF0E3716000E38162B
:100E60003B8EFF0E3916FF0E3A16FF0E3B16000E94
:100E70003C164250435CD8B01CD0D89039363A3634
:100E80003B363C36420642504318D8B40ED0410699
:100E900041C03DF0070E3D16D8B407D0EED7D8902C
:100EA0003832373236323532432A42504362F7D72E
:100EB0001FD04350425CD8B01BD0D8903536363660
:100EC00037363836430642504318D8B40ED0410660
:100ED00041C03DF0070E3D16D8B407D0EED7D890EC
:100EE0003C323B323A323932422A42504362F7D7DF
:100EF00041AE0ED0FF0E351AFF0E361AFF0E371A0E
:100F0000FF0E381A010E3526000E362237223822FF
:100F100041AC0ED0FF0E391AFF0E3A1AFF0E3B1AE3
:100F2000FF0E3C1A010E3926000E3A223B223C22CB
:100F3000000E416E3550392636503A2237503B224A
:100F400038503C223CAE10D0FF0E391AFF0E3A1A30
:100F5000FF0E3B1AFF0E3C1A010E3926000E3A22F4
:100F60003B223C22010E416E39C00FF03AC010F016
:100F70003BC011F03CC012F043C013F041C014F06C
:100F8000A6EC0AF00FC035F010C036F011C037F0F3
:100F900012C038F01200000EA3EC0DF00E0EBFECE4
:100FA0000CF0000E126E010E116E1250800A800FAE
:100FB000080ED8B4115CD8B009D01150A3EC0DF0D4
:100FC0001F0EBFEC0CF0114A122AEFD7080EA3EC4B
:100FD0000DF00E0EBFEC0CF0000E146E010E136E31
:100FE0001450800A800F060ED8B4135CD8B00AD013
:100FF0001350080FA3EC0DF0110EBFEC0CF0134AC8
:10100000142AEED7000E166E060E156E1650800AC4
:10101000800F080ED8B4155CD8B00AD01550080F50
:10102000A3EC0DF01F0EBFEC0CF0154A162AEED7FC
:10103000100EA3EC0DF00E0EBFEC0CF0000E186EAF
:10104000010E176E1850800A800F070ED8B4175C77
:10105000D8B00AD01750100FA3EC0DF0110EBFEC52
:101060000CF0174A182AEED7170EA3EC0DF01F0E3E
:10107000BFEC0CF0180EA3EC0DF0000EBFEC0CF062
:10108000190EA3EC0DF0000EBFEC0CF01A0EA3EC41
:101090000DF0030EBFEC0CF01B0EA3EC0DF0060ED2
:1010A000BFEC0CF01C0EA3EC0DF00C0EBFEC0CF022
:1010B0001D0EA3EC0DF0180EBFEC0CF01E0EA3ECF1
:1010C0000DF0000EBFEC0CF01F0EA3EC0DF0000EA7
:1010D000BFEC0CF012001EC026F01FC027F020C08D
:1010E00028F021C029F0180E05D0D89029322832D6
:1010F00027322632E82EF9D726502A6E2A6609D0E2
:10110000000E1E6E000E1F6E000E206E000E216E71
:10111000120022C026F023C027F024C028F025C0EA
:1011200029F0180E05D0D8902932283227322632DD
:10113000E82EF9D72650306E306609D0000E1E6EAC
:10114000000E1F6E000E206E000E216E1200305039
:101150007B0F2A2621C030F02550301A800E301621
:10116000208E248EFF0E2216FF0E2316FF0E24164D
:10117000000E2516000E2B6E000E2C6E000E2D6E2E
:10118000000E2E6E070E2F6E1EA008D022502B26AA
:1011900023502C2224502D2225502E22D89021324B
:1011A00020321F321E32D89022362336243625367E
:1011B0002F2EEAD7110E2F6E1EA008D022502B26FC
:1011C00023502C2224502D2225502E22D89021321B
:1011D00020321F321E32D8902E322D322C322B323A
:1011E0002F2EEAD72BC00FF02CC010F02DC011F01D
:1011F0002EC012F02AC013F030C014F0A6EC0AF092
:101200000FC01EF010C01FF011C020F012C021F05E
:1012100012001B6E000E216E000E206E000E236E5B
:10122000000E226E000E1D6E000E1C6E000E1F6E54
:10123000000E1E6E000E216E000E206E2150800AE0
:10124000800F030ED8B4205CD8B0120022D018C092
:1012500022F0236A000E1D6E080E1C6E000E1F6E1B
:10126000090E15D017C022F0236A000E1D6E0B0E5A
:101270001C6E000E1F6E0C0E0AD01BC022F0236ADB
:10128000000E1D6E0E0E1C6E000E1F6E0F0E1E6EDB
:1012900012D020C019F021C01AF01A50000AD8A4A8
:1012A0000AD01950000AD8B4D2D7010AD8B4DAD774
:1012B000030AD8B4E2D72350800AF36E800EF35CA1
:1012C0000A0ED8B4225CD8B00ED01C509BEC0DF0A6
:1012D000300EBFEC0CF01E509BEC0DF02250300F86
:1012E000BFEC0CF022D01C509BEC0DF022C00FF094
:1012F00023C010F0000E126E0A0E116EEAEC0BF015
:101300000F50300FBFEC0CF01E509BEC0DF022C0C4
:101310000FF023C010F0000E126E0A0E116E3CEC9E
:101320000CF00F50300FBFEC0CF0204A212A86D76A
:101330001DC025F01EC026F01FC027F020C028F0D9
:10134000180E05D0D8902832273226322532E82EC2
:10135000F9D725502E6E2E6609D0000E1D6E000E98
:101360001E6E000E1F6E000E206E120021C025F0B2
:1013700022C026F023C027F024C028F0180E05D084
:10138000D8902832273226322532E82EF9D7255038
:101390002F6E2F6609D0000E1D6E000E1E6E000E01
:1013A0001F6E000E206E12002F50890F2E5E20C07F
:1013B0002FF024502F1A800E2F161F8EFF0E1D1691
:1013C000FF0E1E16FF0E1F16000E2016238EFF0E98
:1013D0002116FF0E2216FF0E2316000E2416200ED5
:1013E0002D6ED89029362A362B362C3621501D5C8E
:1013F00022501E5823501F5824502058D8A009D0DE
:1014000021501D5E22501E5A23501F5A2450205A2C
:101410002980D8901D361E361F3620362D2EE1D756
:1014200029C00FF02AC010F02BC011F02CC012F010
:101430002EC013F02FC014F0A6EC0AF00FC01DF060
:1014400010C01EF011C01FF012C020F0120030C0FA
:1014500034F031C035F032C036F033C037F0180EFA
:1014600005D0D8903732363235323432E82EF9D7BB
:101470003450396E396609D0000E306E000E316E70
:10148000000E326E000E336E120030C034F031C0E8
:1014900035F032C036F033C037F0200E05D0D8908A
:1014A0003732363235323432E82EF9D73450386E8E
:1014B000328EFF0E3016FF0E3116FF0E3216000E62
:1014C0003316960E395E39AE19D03950800A346E13
:1014D000E90E800A345CD8B009D0000E306E000EE0
:1014E000316E000E326E000E336E1200D890333221
:1014F000323231323032393EF9D714D01F0E3964CE
:101500000FD0000E306E000E316E000E326E000EE7
:10151000336E1200D89030363136323633363906D3
:101520003966F8D73850D8B408D0331E321E311E71
:10153000306C000E31223222332230C030F031C004
:1015400031F032C032F033C033F012001350D8B44F
:1015500006D012500F1010101110D8A40FD0000E8A
:101560000F6E000E106E000E116E000E126E120045
:10157000132AD8901232113210320F32000E0F148B
:10158000156E000E1014166E000E1114176EFE0E5E
:101590001214186E1850151016101710D8B40DD05C
:1015A000E7D7132A010E0F26000E10221122122255
:1015B000D8901232113210320F32000E0F14156E05
:1015C000000E1014166E000E1114176EFF0E12147A
:1015D000186E1850151016101710D8B407D0E1D790
:1015E0001306D8900F3610361136123611AEF8D7D2
:1015F00013B008D0FF0E0F16FF0E10167F0E111637
:10160000FF0E1216D890133213C015F0166A176A1F
:10161000186A15C018F0176A166A156A15500F1265
:101620001650101217501112185012121450D8A43C
:10163000128E0FC00FF010C010F011C011F012C0C8
:1016400012F012008B948B96340E126EF20EE82E6E
:10165000FED7122EFCD78A848A868A988A9A8B862D
:1016600000F08B96080E126ECA0EE82EFED7122ED0
:10167000FCD78B8600F08B96030E126E980EE82E28
:10168000FED7122EFCD78B8600F08B96030E126EBF
:10169000980EE82EFED7122EFCD78A948B8600F087
:1016A0008B96030E126E980EE82EFED7122EFCD7E4
:1016B000280EABEC0DF00C0EABEC0DF0060EABEC07
:1016C0000DF08EEC0DF0000E9BEC0DF0060E116E81
:1016D000010E106E55EC0DF0400E9BEC0DF0060E59
:1016E000116E120E106E55EC0DF0010E9BEC0DF00C
:1016F000EF0EBFEC0CF0400E9BEC0DF0E10EBFECDA
:101700000CF0070E9BEC0DF0FF0EBFEC0CF0470E3B
:101710009BEC0DF0FF0EBFEC0CF0120012AE1DD0D2
:101720000FC017F010C018F011C019F012C01AF055
:10173000171E181E191E1A1E172A000E182219220B
:101740001A22000E17240F6E000E1820106E000EC5
:101750001920116E800E1A20126E16AE1DD013C005
:1017600017F014C018F015C019F016C01AF0171EA3
:10177000181E191E1A1E172A000E182219221A22C4
:10178000000E1724136E000E1820146E000E192080
:10179000156E800E1A20166E000E0F1A000E101A0B
:1017A000000E111A800E121A000E131A000E141ACF
:1017B000000E151A800E161A13500F5C1450105894
:1017C0001550115816501258D8B002D0D8901200A7
:1017D000D8801200000E146E1250800AF36E800E34
:1017E000F35C000ED8B4115CD8B006D0116C121E98
:1017F000D8B0122A010E146E1050800AF36E800EBB
:10180000F35C000ED8B40F5CD8B006D00F6C101E7D
:10181000D8B0102A010E141A000E166E000E156EA6
:1018200012501110D8B41CD0010E136E04D0D890F1
:1018300011361236132A12AEFAD7D890153616364C
:1018400011500F5C12501058D8A005D011500F5EE7
:101850001250105A1580D89012321132132EEDD733
:101860001450D8B404D0156C161ED8B0162A15C062
:101870000FF016C010F01200000E146E1050800A07
:10188000F36E800EF35C000ED8B40F5CD8B006D0B7
:101890000F6C101ED8B0102A010E146E1250800A60
:1018A000F36E800EF35C000ED8B4115CD8B004D097
:1018B000116C121ED8B0122A12501110D8B418D0C0
:1018C000010E136E04D0D89011361236132A12AEC0
:1018D000FAD711500F5C12501058D8A004D01150F4
:1018E0000F5E1250105AD89012321132132EF1D7C7
:1018F0001450D8B404D00F6C101ED8B0102A0FC0EA
:101900000FF010C010F01200000E0F01386F030E20
:101910000F01396F000E0F013A6F000E926EC30E69
:10192000936E220E946E92980C0E0F01546F010E5E
:101930000F01486FBB68040EBA6E010ECD6E3D0EEE
:10194000CF6E1D0ECE6E010E9D6E010E9F6EC00EEF
:10195000F26E290EC26E000EC16EA40EC06E8C0E09
:10196000796E200E776EF00E0F01426F240EAC6E72
:10197000800EAB6E000EB86E0C0EAF6E12000F6EC6
:101980000FAE02D08A8A01D08A9A0FAC02D08A8820
:1019900001D08A980FAA02D08A8601D08A960FA811
:1019A00002D08A8401D08A948B8600F08B960FA691
:1019B00002D08A8A01D08A9A0FA402D08A8801D0E4
:1019C0008A980FA202D08A8601D08A960FA002D0F0
:1019D0008A8401D08A948B8600F08B96100EE82EB4
:1019E000FED700D01200000E1D6E1A50800AF36E52
:1019F000800EF35C000ED8B4195CD8B005D0196C19
:101A00001A1ED8B01A2A1D2A19C00FF01AC010F0D9
:101A1000116A126A960E136E1DC014F0A6EC0AF03D
:101A20000FC019F010C01AF011C01BF012C01CF04A
:101A30001200136E000E156E000E146E13C011F01E
:101A4000D8901136D8901136C250830B1110C26E47
:101A500000F000D000D0C282C2B2FED7C450126ED5
:101A6000116AC3501124146E000E1220156E14C09A
:101A70000FF015C010F0120020EE31F0DE50DE1035
:101A8000DE10DE10D8B408D0000E311A000E321A63
:101A9000000E331A800E341A31C031F032C032F0E9
:101AA00033C033F034C034F012000AD010C0F6FF57
:101AB00011C0F7FF0800F550BFEC0CF0104A112AD6
:101AC00010C0F6FF11C0F7FF0800F5500009D8B4A8
:101AD0001200ECD719C00FF01AC010F0116A126A88
:101AE000960E136E000E146EA6EC0AF00FC019F0DD
:101AF00010C01AF011C01BF012C01CF0120000EE52
:101B00007CF0120EEE6AE806FDE14B6A4A6A496A09
:101B1000486A000EF86E000112EF03F08B94010E7C
:101B2000BFEC0CF08B84030E106E980EE82EFED7DF
:101B3000102EFCD71200106E8B941050800FBFEC4B
:101B40000CF08B841200106E8B941050400FBFEC81
:101B50000CF08B841200106E8B941050BFEC0CF0C4
:101B60008B841200FF00FF00FF00FF00FF00FF005A
:020000040030CA
:08000000FF21183CFFB781FF4E
:00000001FF
