:1000000077EF00F0FF00FF00FACF01F0FBCF02F026
:10001000E9CF03F0EACF04F0E1CF05F0E2CF06F03C
:10002000D9CF07F0DACF08F0F3CF09F0F4CF0AF018
:10003000F6CF0BF0F7CF0CF0F8CF0DF0F5CF0EF0B8
:100040009EB09DA037D03D0ECF6E1D0ECE6E504A95
:10005000512A140E505C000E5158D8A02AD0000E20
:10006000516E000E506E5428546E4E4A4F2A3C0E6C
:100070004E5C000E4F58D8A01CD0000E4F6E000EE4
:100080004E6E4C4A4D2A3C0E4C5C000E4D58D8A08A
:1000900010D0000E4D6E000E4C6E524A532A180EB0
:1000A000525C000E5358D8A004D0000E536E000EC0
:1000B000526E9E900EC0F5FF0DC0F8FF0CC0F7FF0A
:1000C0000BC0F6FF0AC0F4FF09C0F3FF08C0DAFF57
:1000D00007C0D9FF06C0E2FF05C0E1FF04C0EAFF88
:1000E00003C0E9FF02C0FBFF01C0FAFF11003CEFB3
:1000F00009F0FF00FF00FF00FF00FF00FF00FF000E
:100600000020723A20202025202020202020202099
:1006100020006220723A2020252030303A30303AD3
:1006200030300000000E3E6EB6EC08F07CEC07F0B7
:10063000C3EC04F0000E436E000E4B6E000E4A6ECB
:10064000000E476E000E466E0A0EE2EC08F00FC078
:1006500044F010C045F044C03AF045C03BF0D8909B
:100660003B323A32D8903B323A323A50416E4450A3
:10067000030B426E41C055FF42C03AF03A3AF00EC9
:100680003A160F015451CF0B3A100F01546F0C0E54
:10069000E2EC08F00FC03FF010C040F04A4A4B2A8D
:1006A00082A225D0320E46243A6E000E47203B6EC1
:1006B0003A504A5C3B504B58D8A019D04304D8A4B8
:1006C00008D04F0E47EC09F0030E82EC08F0000E44
:1006D00009D0436608D04F0E47EC09F0200E82EC9B
:1006E00008F0010E436E4AC046F04BC047F0140EAE
:1006F000216EAE0E226E230E236E410E246E44C078
:1007000019F045C01AF01AEC09F019C01DF01AC012
:100710001EF01BC01FF01CC020F0F2EC05F01DC045
:1007200030F01EC031F01FC032F020C033F081EC39
:1007300006F030C03AF031C03BF032C03CF033C07C
:100740003DF03A50486E0A0E485CD8B011D0040E05
:1007500047EC09F0060E116E100E106E05EC09F054
:10076000050E47EC09F04850300F82EC08F02DD010
:10077000640E485CD8B029D0040E47EC09F0060E90
:10078000116E100E106E05EC09F0040E47EC09F026
:1007900048C00FF0106A000E126E0A0E116EE8ECDF
:1007A00007F00F50300F82EC08F0050E47EC09F00F
:1007B00048C00FF0106A000E126E0A0E116E3AEC6D
:1007C00008F00F50300F82EC08F0140E216EAE0EC0
:1007D000226E230E236E410E246E3FC019F040C0DE
:1007E0001AF01AEC09F019C01DF01AC01EF01BC057
:1007F0001FF01CC020F0F2EC05F01DC030F01EC050
:1008000031F01FC032F020C033F081EC06F030C070
:100810003AF031C03BF032C03CF033C03DF03A50CA
:10082000496E0A0E495CD8B011D0440E47EC09F06D
:10083000060E116E100E106E05EC09F0450E47EC19
:1008400009F04950300F82EC08F02DD0640E495C5D
:10085000D8B029D0440E47EC09F0060E116E100EE8
:10086000106E05EC09F0440E47EC09F049C00FF09A
:10087000106A000E126E0A0E116EE8EC07F00F50AF
:10088000300F82EC08F0450E47EC09F049C00FF03C
:10089000106A000E126E0A0E116E3AEC08F00F503C
:1008A000300F82EC08F04D0E47EC09F0000E82ECA0
:1008B00008F054A00BD04E0E47EC09F0010E82EC6C
:1008C00008F00A0E546402D0010E546E54B006D0E3
:1008D0004E0E47EC09F0020E82EC08F082AA12D00C
:1008E000320E46243A6E000E47203B6E3A504A5C68
:1008F0003B504B58D8A006D0524A532A4AC046F023
:100900004BC047F081AC12D0320E46243A6E000E36
:1009100047203B6E3A504A5C3B504B58D8A006D01B
:100920004C4A4D2A4AC046F04BC047F081AE14D025
:10093000320E46243A6E000E47203B6E3A504A5C17
:100940003B504B58D8A008D0000E4F6E000E4E6E94
:100950004AC046F04BC047F081BC81AE0CD0000EBF
:100960004F6E000E4E6E000E4D6E000E4C6E000E61
:10097000536E000E526E4CC017F052C018F04E501D
:1009800063EC05F061D6000E4FEC09F00E0E82EC20
:1009900008F0000E126E010E116E1250800A800FC8
:1009A000080ED8B4115CD8B009D011504FEC09F042
:1009B0001F0E82EC08F0114A122AEFD7080E4FECF6
:1009C00009F00E0E82EC08F0000E146E010E136E8C
:1009D0001450800A800F060ED8B4135CD8B00AD029
:1009E0001350080F4FEC09F0110E82EC08F0134A77
:1009F000142AEED7000E166E060E156E1650800ADB
:100A0000800F080ED8B4155CD8B00AD01550080F66
:100A10004FEC09F01F0E82EC08F0154A162AEED7AB
:100A2000100E4FEC09F00E0E82EC08F0000E186E5E
:100A3000010E176E1850800A800F070ED8B4175C8D
:100A4000D8B00AD01750100F4FEC09F0110E82ECFD
:100A500008F0174A182AEED7170E4FEC09F01F0EB0
:100A600082EC08F0180E4FEC09F0000E82EC08F052
:100A7000190E4FEC09F0000E82EC08F01A0E4FEC44
:100A800009F0030E82EC08F01B0E4FEC09F0060E85
:100A900082EC08F01C0E4FEC09F00C0E82EC08F012
:100AA0001D0E4FEC09F0180E82EC08F01E0E4FECF4
:100AB00009F0000E82EC08F01F0E4FEC09F0000E5A
:100AC00082EC08F012001B6E000E216E000E206EEC
:100AD000000E236E000E226E000E1D6E000E1C6EA8
:100AE000000E1F6E000E1E6E000E216E000E206E98
:100AF0002150800A800F030ED8B4205CD8B01200B9
:100B000022D018C022F0236A000E1D6E080E1C6E43
:100B1000000E1F6E090E15D017C022F0236A000EBA
:100B20001D6E0B0E1C6E000E1F6E0C0E0AD01BC02D
:100B300022F0236A000E1D6E0E0E1C6E000E1F6E3C
:100B40000F0E1E6E12D020C019F021C01AF01A50DC
:100B5000000AD8A40AD01950000AD8B4D2D7010A82
:100B6000D8B4DAD7030AD8B4E2D72350800AF36E98
:100B7000800EF35C0A0ED8B4225CD8B00ED01C50A4
:100B800047EC09F0300E82EC08F01E5047EC09F0FB
:100B90002250300F82EC08F022D01C5047EC09F0B4
:100BA00022C00FF023C010F0000E126E0A0E116E5C
:100BB000E8EC07F00F50300F82EC08F01E5047ECC5
:100BC00009F022C00FF023C010F0000E126E0A0EC2
:100BD000116E3AEC08F00F50300F82EC08F0204A0A
:100BE000212A86D71DC025F01EC026F01FC027F081
:100BF00020C028F0180E05D0D8902832273226328F
:100C00002532E82EF9D725502E6E2E6609D0000E1B
:100C10001D6E000E1E6E000E1F6E000E206E120066
:100C200021C025F022C026F023C027F024C028F0E0
:100C3000180E05D0D8902832273226322532E82ED9
:100C4000F9D725502F6E2F6609D0000E1D6E000EAD
:100C50001E6E000E1F6E000E206E12002F50890FA8
:100C60002E5E20C02FF024502F1A800E2F161F8EBC
:100C7000FF0E1D16FF0E1E16FF0E1F16000E20166D
:100C8000238EFF0E2116FF0E2216FF0E2316000ED6
:100C90002416200E2D6ED89029362A362B362C3667
:100CA00021501D5C22501E5823501F58245020589C
:100CB000D8A009D021501D5E22501E5A23501F5A21
:100CC0002450205A2980D8901D361E361F362036D3
:100CD0002D2EE1D729C00FF02AC010F02BC011F043
:100CE0002CC012F02EC013F02FC014F000EC07F04F
:100CF0000FC01DF010C01EF011C01FF012C020F078
:100D0000120030C034F031C035F032C036F033C09C
:100D100037F0180E05D0D8903732363235323432AB
:100D2000E82EF9D73450396E396609D0000E306E8E
:100D3000000E316E000E326E000E336E120030C0A7
:100D400034F031C035F032C036F033C037F0200E09
:100D500005D0D8903732363235323432E82EF9D7D2
:100D60003450386E328EFF0E3016FF0E3116FF0EE5
:100D70003216000E3316960E395E39AE19D0395040
:100D8000800A346EE90E800A345CD8B009D0000EB7
:100D9000306E000E316E000E326E000E336E120099
:100DA000D8903332323231323032393EF9D714D022
:100DB0001F0E39640FD0000E306E000E316E000E23
:100DC000326E000E336E1200D89030363136323625
:100DD000333639063966F8D73850D8B408D0331EC0
:100DE000321E311E306C000E31223222332230C0CE
:100DF00030F031C031F032C032F033C033F0120085
:100E00001350D8B406D012500F1010101110D8A4DF
:100E10000FD0000E0F6E000E106E000E116E000E41
:100E2000126E1200132AD8901232113210320F3281
:100E3000000E0F14156E000E1014166E000E111415
:100E4000176EFE0E1214186E18501510161017108B
:100E5000D8B40DD0E7D7132A010E0F26000E1022AA
:100E600011221222D8901232113210320F32000E9B
:100E70000F14156E000E1014166E000E1114176E5E
:100E8000FF0E1214186E1850151016101710D8B443
:100E900007D0E1D71306D8900F3610361136123628
:100EA00011AEF8D713B008D0FF0E0F16FF0E1016B4
:100EB0007F0E1116FF0E1216D890133213C015F0C4
:100EC000166A176A186A15C018F0176A166A156A42
:100ED00015500F12165010121750111218501212EE
:100EE0001450D8A4128E0FC00FF010C010F011C013
:100EF00011F012C012F012008B948B96340E126E09
:100F0000F20EE82EFED7122EFCD78A848A868A98A3
:100F10008A9A8B8600F08B96080E126ECA0EE82E07
:100F2000FED7122EFCD78B8600F08B96030E126E26
:100F3000980EE82EFED7122EFCD78B8600F08B96EB
:100F4000030E126E980EE82EFED7122EFCD78A944E
:100F50008B8600F08B96030E126E980EE82EFED74D
:100F6000122EFCD7280E57EC09F00C0E57EC09F0A6
:100F7000060E57EC09F02FEC09F0000E47EC09F0D3
:100F8000060E116E120E106E05EC09F0400E47ECC5
:100F900009F0060E116E010E106E05EC09F0010E3F
:100FA00047EC09F0EF0E82EC08F0400E47EC09F038
:100FB000E10E82EC08F0070E47EC09F0FF0E82EC20
:100FC00008F0470E47EC09F0FF0E82EC08F0120023
:100FD000000E146E1250800AF36E800EF35C000E49
:100FE000D8B4115CD8B006D0116C121ED8B0122A39
:100FF000010E146E1050800AF36E800EF35C000E2A
:10100000D8B40F5CD8B006D00F6C101ED8B0102A20
:10101000010E141A000E166E000E156E12501110ED
:10102000D8B41CD0010E136E04D0D89011361236ED
:10103000132A12AEFAD7D8901536163611500F5C17
:1010400012501058D8A005D011500F5E1250105AEF
:101050001580D89012321132132EEDD71450D8B417
:1010600004D0156C161ED8B0162A15C00FF016C085
:1010700010F01200000E146E1050800AF36E800EF5
:10108000F35C000ED8B40F5CD8B006D00F6C101E05
:10109000D8B0102A010E146E1250800AF36E800E22
:1010A000F35C000ED8B4115CD8B004D0116C121EE1
:1010B000D8B0122A12501110D8B418D0010E136EE5
:1010C00004D0D89011361236132A12AEFAD7115026
:1010D0000F5C12501058D8A004D011500F5E12505F
:1010E000105AD89012321132132EF1D71450D8B4AE
:1010F00004D00F6C101ED8B0102A0FC00FF010C013
:1011000010F012000F6E0FAE02D08A8A01D08A9AB8
:101110000FAC02D08A8801D08A980FAA02D08A86A2
:1011200001D08A960FA802D08A8401D08A948B8637
:1011300000F08B960FA602D08A8A01D08A9A0FA45B
:1011400002D08A8801D08A980FA202D08A8601D064
:101150008A960FA002D08A8401D08A948B8600F0F0
:101160008B96100EE82EFED700D01200000E0F0155
:10117000386F030E0F01396F000E0F013A6F000E2A
:10118000926EC30E936E220E946E92980C0E0F0107
:10119000546F010E0F01486FBB68040EBA6E010E4A
:1011A000CD6E3D0ECF6E1D0ECE6E010E9D6E010EEC
:1011B0009F6EC00EF26E290EC26E000EC16EA40E9E
:1011C000C06E1200156E000E146E000E136E15C068
:1011D00011F0D8901136D8901136C250830B1110EF
:1011E000C26E00F000D000D0C282C2B2FED7C4509E
:1011F000126E116AC3501124136E000E1220146E69
:1012000013C00FF014C010F012000AD010C0F6FF87
:1012100011C0F7FF0800F55082EC08F0104A112ABF
:1012200010C0F6FF11C0F7FF0800F5500009D8B450
:101230001200ECD719C00FF01AC010F0116A126A30
:10124000960E136E000E146E00EC07F00FC019F02E
:1012500010C01AF011C01BF012C01CF012008B94C9
:10126000010E82EC08F08B84030E106E980EE82EAF
:10127000FED7102EFCD7120000EE4CF0090EEE6ADD
:10128000E806FDE1000EF86E000112EF03F0106EAB
:101290008B941050800F82EC08F08B841200106E3B
:1012A0008B941050400F82EC08F08B841200106E6B
:1012B0008B94105082EC08F08B841200FF00FF002A
:020000040030CA
:08000000FF21183CFFB781FF4E
:00000001FF
